{
  "contractName": "Greeting",
  "abi": [
    {
      "inputs": [],
      "name": "encoded",
      "outputs": [
        {
          "internalType": "bytes",
          "name": "",
          "type": "bytes"
        }
      ],
      "stateMutability": "view",
      "type": "function"
    },
    {
      "inputs": [],
      "name": "greet",
      "outputs": [
        {
          "internalType": "string",
          "name": "",
          "type": "string"
        }
      ],
      "stateMutability": "view",
      "type": "function"
    },
    {
      "inputs": [
        {
          "components": [
            {
              "components": [
                {
                  "internalType": "address payable",
                  "name": "account",
                  "type": "address"
                },
                {
                  "internalType": "uint96",
                  "name": "value",
                  "type": "uint96"
                }
              ],
              "internalType": "struct Greeting.Part[]",
              "name": "payouts",
              "type": "tuple[]"
            },
            {
              "components": [
                {
                  "internalType": "address payable",
                  "name": "account",
                  "type": "address"
                },
                {
                  "internalType": "uint96",
                  "name": "value",
                  "type": "uint96"
                }
              ],
              "internalType": "struct Greeting.Part[]",
              "name": "originFees",
              "type": "tuple[]"
            }
          ],
          "internalType": "struct Greeting.DataV1",
          "name": "data",
          "type": "tuple"
        }
      ],
      "name": "encode",
      "outputs": [
        {
          "internalType": "bytes",
          "name": "",
          "type": "bytes"
        }
      ],
      "stateMutability": "nonpayable",
      "type": "function"
    },
    {
      "inputs": [],
      "name": "sayEncode",
      "outputs": [
        {
          "internalType": "bytes",
          "name": "",
          "type": "bytes"
        }
      ],
      "stateMutability": "view",
      "type": "function"
    },
    {
      "inputs": [],
      "name": "sayHello",
      "outputs": [
        {
          "internalType": "string",
          "name": "",
          "type": "string"
        }
      ],
      "stateMutability": "view",
      "type": "function"
    },
    {
      "inputs": [
        {
          "internalType": "string",
          "name": "_new_greet",
          "type": "string"
        }
      ],
      "name": "setGreen",
      "outputs": [],
      "stateMutability": "nonpayable",
      "type": "function"
    }
  ],
  "bytecode": "0x60806040526040518060400160405280600581526020017f48656c6c6f000000000000000000000000000000000000000000000000000000815250600090805190602001906200005192919062000066565b503480156200005f57600080fd5b506200017b565b828054620000749062000116565b90600052602060002090601f016020900481019282620000985760008555620000e4565b82601f10620000b357805160ff1916838001178555620000e4565b82800160010185558215620000e4579182015b82811115620000e3578251825591602001919060010190620000c6565b5b509050620000f39190620000f7565b5090565b5b8082111562000112576000816000905550600101620000f8565b5090565b600060028204905060018216806200012f57607f821691505b602082108114156200014657620001456200014c565b5b50919050565b7f4e487b7100000000000000000000000000000000000000000000000000000000600052602260045260246000fd5b610bfa806200018b6000396000f3fe608060405234801561001057600080fd5b50600436106100615760003560e01c8062ebc0331461006657806315d3d11c14610082578063247eff5f146100a05780639a3c40fb146100be578063cfae3217146100ee578063ef5fb05b1461010c575b600080fd5b610080600480360381019061007b9190610745565b61012a565b005b61008a610140565b6040516100979190610944565b60405180910390f35b6100a86101d2565b6040516100b59190610944565b60405180910390f35b6100d860048036038101906100d3919061078a565b610260565b6040516100e59190610944565b60405180910390f35b6100f661032a565b6040516101039190610966565b60405180910390f35b6101146103b8565b6040516101219190610966565b60405180910390f35b81816000919061013b92919061044a565b505050565b60606001805461014f90610af5565b80601f016020809104026020016040519081016040528092919081815260200182805461017b90610af5565b80156101c85780601f1061019d576101008083540402835291602001916101c8565b820191906000526020600020905b8154815290600101906020018083116101ab57829003601f168201915b5050505050905090565b600180546101df90610af5565b80601f016020809104026020016040519081016040528092919081815260200182805461020b90610af5565b80156102585780601f1061022d57610100808354040283529160200191610258565b820191906000526020600020905b81548152906001019060200180831161023b57829003601f168201915b505050505081565b6060816040516020016102739190610988565b604051602081830303815290604052600190805190602001906102979291906104d0565b50600180546102a590610af5565b80601f01602080910402602001604051908101604052809291908181526020018280546102d190610af5565b801561031e5780601f106102f35761010080835404028352916020019161031e565b820191906000526020600020905b81548152906001019060200180831161030157829003601f168201915b50505050509050919050565b6000805461033790610af5565b80601f016020809104026020016040519081016040528092919081815260200182805461036390610af5565b80156103b05780601f10610385576101008083540402835291602001916103b0565b820191906000526020600020905b81548152906001019060200180831161039357829003601f168201915b505050505081565b6060600080546103c790610af5565b80601f01602080910402602001604051908101604052809291908181526020018280546103f390610af5565b80156104405780601f1061041557610100808354040283529160200191610440565b820191906000526020600020905b81548152906001019060200180831161042357829003601f168201915b5050505050905090565b82805461045690610af5565b90600052602060002090601f01602090048101928261047857600085556104bf565b82601f1061049157803560ff19168380011785556104bf565b828001600101855582156104bf579182015b828111156104be5782358255916020019190600101906104a3565b5b5090506104cc9190610556565b5090565b8280546104dc90610af5565b90600052602060002090601f0160209004810192826104fe5760008555610545565b82601f1061051757805160ff1916838001178555610545565b82800160010185558215610545579182015b82811115610544578251825591602001919060010190610529565b5b5090506105529190610556565b5090565b5b8082111561056f576000816000905550600101610557565b5090565b6000610586610581846109db565b6109aa565b905080838252602082019050828560408602820111156105a557600080fd5b60005b858110156105d557816105bb88826106e4565b8452602084019350604083019250506001810190506105a8565b5050509392505050565b6000813590506105ee81610b96565b92915050565b600082601f83011261060557600080fd5b8135610615848260208601610573565b91505092915050565b60008083601f84011261063057600080fd5b8235905067ffffffffffffffff81111561064957600080fd5b60208301915083600182028301111561066157600080fd5b9250929050565b60006040828403121561067a57600080fd5b61068460406109aa565b9050600082013567ffffffffffffffff8111156106a057600080fd5b6106ac848285016105f4565b600083015250602082013567ffffffffffffffff8111156106cc57600080fd5b6106d8848285016105f4565b60208301525092915050565b6000604082840312156106f657600080fd5b61070060406109aa565b90506000610710848285016105df565b600083015250602061072484828501610730565b60208301525092915050565b60008135905061073f81610bad565b92915050565b6000806020838503121561075857600080fd5b600083013567ffffffffffffffff81111561077257600080fd5b61077e8582860161061e565b92509250509250929050565b60006020828403121561079c57600080fd5b600082013567ffffffffffffffff8111156107b657600080fd5b6107c284828501610668565b91505092915050565b60006107d78383610906565b60408301905092915050565b6107ec81610a78565b82525050565b60006107fd82610a17565b6108078185610a45565b935061081283610a07565b8060005b8381101561084357815161082a88826107cb565b975061083583610a38565b925050600181019050610816565b5085935050505092915050565b600061085b82610a22565b6108658185610a56565b9350610875818560208601610ac2565b61087e81610b85565b840191505092915050565b600061089482610a2d565b61089e8185610a67565b93506108ae818560208601610ac2565b6108b781610b85565b840191505092915050565b600060408301600083015184820360008601526108df82826107f2565b915050602083015184820360208601526108f982826107f2565b9150508091505092915050565b60408201600082015161091c60008501826107e3565b50602082015161092f6020850182610935565b50505050565b61093e81610aaa565b82525050565b6000602082019050818103600083015261095e8184610850565b905092915050565b600060208201905081810360008301526109808184610889565b905092915050565b600060208201905081810360008301526109a281846108c2565b905092915050565b6000604051905081810181811067ffffffffffffffff821117156109d1576109d0610b56565b5b8060405250919050565b600067ffffffffffffffff8211156109f6576109f5610b56565b5b602082029050602081019050919050565b6000819050602082019050919050565b600081519050919050565b600081519050919050565b600081519050919050565b6000602082019050919050565b600082825260208201905092915050565b600082825260208201905092915050565b600082825260208201905092915050565b6000610a8382610a8a565b9050919050565b600073ffffffffffffffffffffffffffffffffffffffff82169050919050565b60006bffffffffffffffffffffffff82169050919050565b60005b83811015610ae0578082015181840152602081019050610ac5565b83811115610aef576000848401525b50505050565b60006002820490506001821680610b0d57607f821691505b60208210811415610b2157610b20610b27565b5b50919050565b7f4e487b7100000000000000000000000000000000000000000000000000000000600052602260045260246000fd5b7f4e487b7100000000000000000000000000000000000000000000000000000000600052604160045260246000fd5b6000601f19601f8301169050919050565b610b9f81610a78565b8114610baa57600080fd5b50565b610bb681610aaa565b8114610bc157600080fd5b5056fea2646970667358221220e58fa322db3501973ff7fa8a0594019c25b3ac405ed7b647e0622f61bb78acee64736f6c63430008000033",
  "immutableReferences": {},
  "source": "// SPDX-License-Identifier: MIT\npragma solidity >=0.4.22 <0.9.0;\npragma abicoder v2;\n\n\ncontract Greeting {\n  struct Part {\n      address payable account;\n      uint96 value;\n  }\n  struct DataV1 {\n      Part[] payouts;\n      Part[] originFees;\n  }\n\n  string public greet = \"Hello\";\n  bytes public encoded;\n\n  // constructor() public {\n  // }\n  function encode(DataV1 memory data) external returns (bytes memory) {\n      encoded = abi.encode(data);\n      return encoded;\n  }\n\n  function sayEncode() external view returns(bytes memory){\n    return encoded;\n  }\n\n  function sayHello() external view returns(string memory) {\n    return greet;\n  }\n\n  function setGreen(string calldata _new_greet) external {\n    greet = _new_greet;\n  }\n}\n",
  "sourcePath": "/Users/chang-younglee/temp/greeting/contracts/Greeting.sol",
  "compiler": {
    "name": "solc",
    "version": "0.8.0+commit.c7dfd78e.Emscripten.clang"
  },
  "schemaVersion": "3.4.0",
  "updatedAt": "2021-05-21T02:31:56.913Z",
  "devdoc": {
    "kind": "dev",
    "methods": {},
    "version": 1
  },
  "userdoc": {
    "kind": "user",
    "methods": {},
    "version": 1
  }
}